:020000040000FA
:100000000C945E010C948F010C948F010C948F0161
:100010000C948F010C948F010C948F010C948F0120
:100020000C948F010C948F010C948F010C948F0110
:100030000C948F010C948F010C948F010C948F0100
:100040000C948F010C948F010C948F010C948F01F0
:100050000C948F010C94130E0C948F010C94C90D09
:100060000C948F010C94930D0C94690D0C948F01DA
:100070000C948F010C948F010C948F010C948F01C0
:100080000C948F010C948F010C948F010C948F01B0
:100090000C948F010C948F010C948F010C948F01A0
:1000A0000C948F010C948F010C948F010C948F0190
:1000B0000C948F010C948F010C948F010C948F0180
:1000C0000C948F010C948F010C948F010C948F0170
:1000D0000C948F010C948F010C948F010C948F0160
:1000E0000C948F010C9424030C94ED020C94FF05E6
:1000F0000C9423030C94FD050C947B050C94E101F6
:100100000C94EB0C0C94AF0E0C947F0C0C948205A9
:100110000C9491010C9428030C941A030C9408037A
:100120000C94BE010C94F5020C9416030C9410036D
:100130000C9474020C94A70A0C94EF010C94C00E5A
:100140000C942C060C94E9020C94FE020C9402030D
:100150000C94E3020C94F8020C94D80A0C941E033D
:100160000C940C030C9427020C9424060C94CD01DF
:100170000C94F1020C947C05005EBCE2613FDD83CF
:10018000C29C7E20A3FD1F41009D23BE46DB65F877
:100190008C11AF32CA57E9740000210024002700F7
:1001A0002A002D0030003300010100000401070186
:1001B0000A0100002200250028002B002E0031003B
:1001C000340002010000050108010B0100000A0BC8
:1001D00002090C0D0E0807030401000000000000D6
:1001E000000000000000000000000000000000000F
:1001F00000000000000000001211100000000000CC
:1002000000000000000000000000000000000000EE
:100210000000000020002300260029002C002F00F1
:100220003200000100000301060109010505050572
:10023000070508080808020202020A0A080804045E
:10024000040401010101010101010303030303038C
:100250000303040707070C0C0C0C0C0C0C0C02021B
:10026000020206060606060606060B0B0B0B0B0B18
:100270000B0B0102102020080810204010204080A5
:10028000020102010804020101020408102040805A
:1002900080402010080402018004020180402010E8
:1002A0000804020108040201010204081020408031
:1002B0000102040810204080C00EAF0E11241FBEA2
:1002C000CFEFD1E2DEBFCDBF00E00CBF12E0A0E077
:1002D000B2E0E2E5FCE200E00BBF02C007900D9245
:1002E000A23CB107D9F723E0A2ECB2E001C01D9215
:1002F000A63BB207E1F711E0CDE5D1E000E006C092
:1003000021970109802FFE010E94D614CC35D10718
:1003100080E00807A9F70E949A0F0C9417160C9416
:100320000000AF92BF92CF92DF92EF92FF920F93B5
:100330001F93CF93DF936C017B018B01040F151F7B
:10034000EB015E01AE18BF08C017D10759F06991E3
:10035000D601ED91FC910190F081E02DC601199537
:10036000892B79F7C501DF91CF911F910F91FF90F4
:10037000EF90DF90CF90BF90AF900895FC01538D28
:10038000448D252F30E0842F90E0821B930B54176F
:1003900010F0CF96089501970895FC01918D828DFC
:1003A000981761F0A28DAE0FBF2FB11D5D968C9195
:1003B000928D9F5F9F73928F90E008958FEF9FEFD4
:1003C0000895FC01918D828D981731F0828DE80F90
:1003D000F11D858D90E008958FEF9FEF0895FC014A
:1003E000918D228D892F90E0805C9F4F821B910917
:1003F0008F739927089584EE92E00E94EF0121E027
:10040000892B09F420E0822F0895FC01A48DA80F08
:10041000B92FB11DA35ABF4F2C91848D90E0019646
:100420008F739927848FA689B7892C93A089B18966
:100430008C91837080648C93938D848D981306C007
:100440000288F389E02D80818F7D80830895EF926B
:10045000FF920F931F93CF93DF93EC0181E0888F7E
:100460009B8D8C8D98131AC0E889F989808185FF4E
:1004700015C09FB7F894EE89FF896083E889F989F0
:1004800080818370806480839FBF81E090E0DF91F2
:10049000CF911F910F91FF90EF900895F62E0B8D45
:1004A00010E00F5F1F4F0F731127E02E8C8D8E1100
:1004B0000CC00FB607FCFACFE889F989808185FF67
:1004C000F5CFCE010E940502F1CFEB8DEC0FFD2F91
:1004D000F11DE35AFF4FF0829FB7F8940B8FEA8922
:1004E000FB8980818062CFCFCF93DF93EC01888D31
:1004F0008823B9F0AA89BB89E889F9898C9185FD9F
:1005000003C0808186FD0DC00FB607FCF7CF8C912C
:1005100085FFF2CF808185FFEDCFCE010E940502DD
:10052000E9CFDF91CF91089580E090E0892B29F009
:100530000E94FB0181110E94000080E090E0892B65
:1005400049F080E090E0892B29F00E9400008111A1
:100550000E94000080E090E0892B49F080E090E06C
:10056000892B29F00E94000081110E94000080E088
:1005700090E0892B49F080E090E0892B29F00E94DF
:10058000000081110C94000008958150823108F020
:100590005AC0E82FF0E08827EF52FD4F8F4F0C94A0
:1005A000D614F102F502E302E902ED022303F80298
:1005B000FE02020308030C03100316031A032303AD
:1005C0001E0324032803809180008F77809380008E
:1005D0000895809180008F7DF9CF80918000877F82
:1005E000F5CF84B58F7784BD089584B58F7DFBCF1B
:1005F0008091B0008F778093B00008958091B00013
:100600008F7DF9CF809190008F778093900008952F
:10061000809190008F7DF9CF80919000877FF5CFFA
:100620008091A0008F778093A00008958091A00012
:100630008F7DF9CF8091A000877FF5CF8091200139
:100640008F77809320010895809120018F7DF9CFCD
:1006500080912001877FF5CF1F93CF93DF93282FC1
:1006600030E0F901E453FE4F8491F901EE58FD4F5B
:10067000D491F901E45DFD4FC491CC23A9F0162F6C
:1006800081110E94C502EC2FF0E0EE0FFF1FEE5427
:10069000FE4FA591B4918FB7F894EC91111108C059
:1006A000D095DE23DC938FBFDF91CF911F9108950A
:1006B000DE2BF8CFCF93DF9390E0FC01EE58FD4F97
:1006C0002491845D9D4FFC0184918823C9F090E0C2
:1006D000880F991FFC01E856FE4FA591B491FC01CB
:1006E000EE54FE4FC591D49161110DC09FB7F8949F
:1006F0008C91209582238C938881282328839FBF07
:10070000DF91CF910895623051F49FB7F8943C91F6
:10071000822F809583238C93E8812E2BEFCF8FB788
:10072000F894EC912E2B2C938FBFEACF3FB7F8941F
:100730008091D1029091D202A091D302B091D402C3
:1007400026B5A89B05C02F3F19F00196A11DB11D2C
:100750003FBFBA2FA92F982F8827BC01CD01620F68
:10076000711D811D911D42E0660F771F881F991F23
:100770004A95D1F70895DC0180E0615090F09D9199
:100780009827E92FEF70F0E0E858FE4F2491E92F09
:10079000E295EF70F0E0E857FE4FE491822F8E274C
:1007A000ECCF0895DC012C911196ED91FC91F89419
:1007B0008181822B81839281322F30959323928382
:1007C00087E090E00197F1F781818323818383E2C1
:1007D00090E00197F1F790817894EFECF0E0319799
:1007E000F1F7922381E009F480E00895FC01908103
:1007F0000180F281E02D292F209560FF14C0F8942C
:100800008281822382838181892B8183A3E2B0E06C
:100810001197F1F78281982B9283789487ED90E07D
:100820000197F1F70895F894828182238283818170
:10083000892B8183AFEFB0E01197F1F78281982B7C
:10084000928378948FE090E0EBCFDF92EF92FF926B
:100850000F931F93CF93DF93EC01D62EE42E08E085
:1008600010E0FF24F39461E08D2D8F2109F460E006
:10087000CE010E94F603FF0C01501109A1F7E1100F
:1008800010C0F894E981FA8191818881809589234B
:100890008183E981FA81928188818095892382838D
:1008A0007894DF91CF911F910F91FF90EF90DF909F
:1008B0000895EF92FF920F931F93CF93DF938C01D4
:1008C0007B0140E065E50E942504E70188E0E80E31
:1008D000F11C699140E0C8010E942504CE15DF0596
:1008E000C1F7DF91CF911F910F91FF90EF90089585
:1008F000FC0190810180F281E02DF8948181292F03
:1009000020958223818378943DE743E050E0315085
:1009100029F1DA011197F1F780818923C1F3F89465
:100920008281822382838181892B81837894ABE7C2
:10093000B7E01197F1F7F894818182238183A3E1D5
:10094000B1E01197F1F78081982381E009F080E010
:100950007894E3E6F6E03197F1F7089580E00895A2
:100960006F927F928F929F92AF92BF92CF92DF92BF
:10097000EF92FF920F931F93CF93DF938C01EB01C4
:1009800080918A0390918B030E947804882309F454
:100990003FC0B80180918A0390918B030E94590453
:1009A00040E06EEB80918A0390918B030E942504B6
:1009B0007E016E0189E0C80ED11C8E01A0908A03D1
:1009C000B0908B0388E0882E912C712C6624639460
:1009D000C5010E94D20381117628660CE1E08E1ACF
:1009E0009108B1F7F80171928F01CE16DF0631F749
:1009F00080918A0390918B030E947804813041F4A6
:100A0000F70181917F01811105C0E017F107C1F75E
:100A100090E008C068E0CE010E94BB0391E0288509
:100A20002813F6CF892FDF91CF911F910F91FF905F
:100A3000EF90DF90CF90BF90AF909F908F907F907E
:100A40006F9008950F920FB60F921F922F923F92C0
:100A50004F925F926F927F928F929F92AF92BF92CE
:100A6000CF92DF92EF92FF920F931F932F933F93BA
:100A70004F935F936F937F938F939F93AF93BF93A6
:100A8000CF93DF93EF93FF938DB79EB70E94AE0590
:100A90008DBF9EBFFF91EF91DF91CF91BF91AF913D
:100AA0009F918F917F916F915F914F913F912F9186
:100AB0001F910F91FF90EF90DF90CF90BF90AF907C
:100AC0009F908F907F906F905F904F903F902F906E
:100AD0001F900F900FBE0F900895882311F0789407
:100AE0000895F8940895FC019FB7F894991F9927E9
:100AF000991F908308950895DC011296ED91FC9161
:100B0000CB0119940895CF93DF93EC01CC0FDD1F37
:100B1000E091AC03F091AD03EC0FFD1F808191815A
:100B2000DC01ED91FC910190F081E02D1995E091AF
:100B3000AC03F091AD03EC0FFD1F80819181009714
:100B400011F00E948E15E091AC03F091AD03EC0F13
:100B5000FD1F11821082DF91CF910895E091C802AC
:100B6000F091C9022091AC033091AD03EE0FFF1F4D
:100B7000E20FF31F0190F081E02D4481558157FF72
:100B80002EC08091C8029091C9020E948305809175
:100B9000C6029091C7029093C9028093C8028FEF5A
:100BA0009FEF909301028093000280910202909146
:100BB00003029093CB028093CA028091C802909165
:100BC000C902880F991FE091AC03F091AD03E80FC3
:100BD000F91F0190F081E02D828193810895409169
:100BE000C8025091C902440F551F240F351FD90167
:100BF000ED91FC9193838283CACF0C948E150C9453
:100C00008E15CF93DF93DC011296ED91FC9120813C
:100C100031812150310931832083232B91F4EC0160
:100C200088819981009739F0DC01ED91FC91028077
:100C3000F381E02D19958A819B81DF91CF910C94EE
:100C40008E15DF91CF91089526E232E0FC013183C9
:100C5000208307960C940106CF93DF93EC010E944A
:100C60002406CE01DF91CF910C948E15BF92CF92C6
:100C7000DF92EF92FF920F931F93CF93DF93EC01DC
:100C8000B62EC72E8D85811105C0CE010E94780435
:100C900081110EC01B861D861C8680E0DF91CF91DE
:100CA0001F910F91FF90EF90DF90CF90BF9008952C
:100CB00040E060EFCE010E94250401E0E12CD12C40
:100CC00011E0CE010E94D203F82ECE010E94D20381
:100CD00091E0F91218C0813099F51134D8F2DB8611
:100CE000D11002C081E08D878B81882399F22396F1
:100CF000EB2DFC2DCF01089629912193E817F907D8
:100D0000D9F781E0CBCFEE2DF0E0F8120FC08B8544
:100D10001817A0F4DE01AE0FBF1F13968C9180232D
:100D200079F4F12C193008F41C87D12EEC0FFD1F3B
:100D30008381902F9095892383830AC08113F1CFFB
:100D4000FE01EE0DF11D8381802B8383FF24F3943C
:100D50006F2DCE010E94F6031F5F000F11F4E39484
:100D600001E087E08E1508F0ACCFB7CF0F931F934B
:100D7000CF93DF93EC01C11580E4D80700F5CE01D5
:100D8000880F991F0E94F2148C014091B00350917A
:100D9000B103C417D50708F4AE018091AC0390915C
:100DA000AD03DC01F80130E020E02417350751F0F5
:100DB0006D917D91619371932F5F3F4FF6CF8FEFD0
:100DC0009FEFE0CF009711F00E948E150093AC03C7
:100DD0001093AD03D093B103C093B003DF91CF91D3
:100DE0001F910F910895CF93DF93EC018091AE0393
:100DF0009091AF032091B0033091B1038217930714
:100E000031F40097E9F0880F991F0E94B6062091EF
:100E1000AC033091AD038091AE039091AF03AC0170
:100E20004F5F5F4F5093AF034093AE03880F991FFE
:100E3000820F931FFC01D183C083DF91CF9108956E
:100E400082E090E0E2CFCF92DF92EF92FF920F9399
:100E50001F93CF93DF9300D01F921F92CDB7DEB7C1
:100E60008C0184E090E00E94F2142EE232E0DC017A
:100E700011963C932E9313961C930E9312979A837C
:100E8000898382E090E00E94F21421E030E0FC01CE
:100E9000318320839C838B83CE0105960E9473054A
:100EA0008091E302EE24EA94FF24FA94882309F463
:100EB0009EC08091AE039091AF03C090AC03D090E0
:100EC000AD03F601F12CE12C8E159F0529F021913F
:100ED0003191232B09F0A1C08EE292E00E94F2141E
:100EE0008C0186E292E0D80111969C938E938981C1
:100EF0009A8118969C938E931797EB81FC811A9692
:100F0000FC93EE9319978081918101969183808360
:100F10001C961C921E921B97C801835D9D4F1396D1
:100F20009C938E9312978091AE039091AF03E81635
:100F3000F90609F076C0C8010E94F306D80114969C
:100F4000EC9214971596FC92159716968C9116971D
:100F5000816016968C938091DD029091DE0200975D
:100F600021F4E092DB02F092DC0201969093DE0223
:100F70008093DD02D8011296ED91FC911397CF0179
:100F8000019713969C938E9312978FE79CE0808332
:100F90001296ED91FC9113979F0121503109139600
:100FA0003C932E93129790831296ED91FC91139798
:100FB000CF01019713969C938E931297108281E232
:100FC00090E0D8011296ED91FC9113979F0121506A
:100FD000310913963C932E9312971082019789F74B
:100FE0001296ED91FC9180E880A3008717838D8194
:100FF0000E946D05CE0101960E940106C7010F9067
:101000000F900F900F900F90DF91CF911F910F9144
:10101000FF90EF90DF90CF900895BFEFEB1AFB0A9F
:1010200053CFC701880F991FC80ED91EF60111832F
:10103000008384CFFC0101900020E9F73197AF01D4
:10104000481B590BBC0184EE92E00C9491018F92E5
:101050009F92AF92BF920F931F93CF93DF93CDB721
:10106000DEB7A1970FB6F894DEBF0FBECDBF19A2B1
:10107000423008F44AE08E010F5D1F4F842E912C00
:10108000B12CA12CA50194010E945512E62FB901A3
:10109000CA01EA30F4F4E05DD801EE938D01232B10
:1010A000242B252B79F790E080E0109719F0CD01E3
:1010B0000E941A08A1960FB6F894DEBF0FBECDBFEE
:1010C000DF91CF911F910F91BF90AF909F908F9024
:1010D0000895E95CE1CFCF92DF92EF92FF92CF9338
:1010E000DF936B017C016DE284EE92E00E942702A7
:1010F000EC0166277727CB016C197D098E099F09C2
:101100004AE00E9427088C0F9D1FDF91CF91FF902E
:10111000EF90DF90CF900895CF93DF930E941A084D
:10112000EC0186E492E00E941A088C0F9D1FDF916B
:10113000CF9108954F925F926F927F928F929F927C
:10114000AF92BF92CF92DF92EF92FF920F931F93D5
:10115000CF936B017C01742EAC019B010E94BD14E6
:10116000882399F089E492E0CF911F910F91FF902D
:10117000EF90DF90CF90BF90AF909F908F907F9037
:101180006F905F904F900C941A0846015701E894B5
:10119000B7F82FEF3FEF4FE75FE7C501B4010E94BB
:1011A000BD1481110DC02FEF3FEF4FE75FE7C50181
:1011B000B4010E94F31218161CF48DE492E0D4CF0F
:1011C0002FEF3FEF4FE75FE4C701B6010E944B14DA
:1011D00018161CF481E592E0C7CF2FEF3FEF4FE7E1
:1011E0005FECC701B6010E94F31287FDF3CF20E048
:1011F00030E0A901C701B6010E94F31210E000E03F
:1012000087FF0AC06DE284EE92E00E9427028C0103
:10121000F7FAF094F7F8F094C0E060E070E080E056
:101220009FE37C1641F020E030E040E251E40E9470
:10123000F812CF5FF6CFA70196010E9487122B010B
:101240003C010E946A134B015C014AE00E9427089E
:101250007C01E00EF11ECC23C1F1C501B4010E9456
:1012600099139B01AC01C301B2010E9486124B018C
:101270005C016EE284EE92E00E942702E80EF91E05
:10128000C15018F120E030E040E251E4C501B40162
:101290000E9450142B013C010E946A134B01B12C97
:1012A000A12C4AE0C501B4010E942708E80EF91EEE
:1012B000C501B4010E9499139B01AC01C301B201A5
:1012C0000E9486124B015C01DBCFC701CF911F91B9
:1012D0000F91FF90EF90DF90CF90BF90AF909F90D5
:1012E0008F907F906F905F904F900895CF92DF9294
:1012F000EF92FF920F931F93CF93DF9300D000D014
:10130000CDB7DEB786E0EEE0F2E0DE0111960190A7
:101310000D928A95E1F7E7EDF2E08E010F5F1F4F26
:1013200043EE52E0D801D12CC12C828193810097E9
:1013300009F447C08130910549F4209100023091B1
:1013400001026081718162177307D9F16D917C91FF
:101350001197869F9001879F300D969F300D112425
:1013600011963C932E93C20ED31E349612964E17AE
:101370005F07D9F6C114D10441F58091C80290915C
:10138000C9029093C7028093C6022091C602309191
:10139000C7028091C8029091C9022817390711F03D
:1013A0000E94220526960FB6F894DEBF0FBECDBF71
:1013B000DF91CF911F910F91FF90EF90DF90CF9031
:1013C000089511961C921E92D0CF0D2C000CEE08A1
:1013D000FF08C114D104E104F10439F00E94CB11DB
:1013E000A70196010E9423126B0190E080E050E07B
:1013F00040E0F801219131918F01820F931FC816AF
:10140000D90618F04F5F5F4FF4CF9A01220F331FB8
:10141000220F331FF901E952FD4FA081B1810091E4
:10142000AE031091AF03E090AC03F090AD03CD019B
:1014300001968017910714F090E080E0A817B90793
:1014400031F429523D4FF901918380839ACF609105
:101450000002709101028617970751F3FC01EE0F0D
:10146000FF1FEE0DFF1D0190F081E02D309701F37D
:101470006481758177FDDCCF6681762F7370741778
:101480001506B1F663FDD4CFDCCFCF93DF931F9267
:10149000CDB7DEB7CE0101960E9473058091E302BD
:1014A0008823A9F02091C8023091C9028091C60218
:1014B0009091C7022817390751F48091C802909182
:1014C000C90290930102809300020E9476098981EB
:1014D0000E946D050F90DF91CF9108958F929F929A
:1014E000AF92BF92CF92DF92EF92FF926B017C019D
:1014F0000E9496034B015C01C114D104E104F10484
:10150000E9F00E94450A0E949603681979098A0940
:101510009B09683E73408105910570F321E0C21A72
:10152000D108E108F10888EE880E83E0981EA11C1E
:10153000B11CC114D104E104F10429F7FF90EF902C
:10154000DF90CF90BF90AF909F908F900895C9ED9E
:10155000D1E00FE712E099E3E92E92E0F92EFE01C7
:101560008491F801C490F701D49070E060E0DD2030
:1015700099F081110E94C502ED2DF0E0EE0FFF1FE2
:10158000EE5EFD4FA591B4918C91C82291E080E070
:1015900009F490E0692F782FF1E06F278DE00E9429
:1015A0002C0368EC70E080E090E00E946E0AD7CFD8
:1015B000CF93DF93CDB7DEB761970FB6F894DEBF58
:1015C0000FBECDBF80918A0390918B030E94780457
:1015D00040E06CEC80918A0390918B030E9425047B
:1015E0004091810364E480918A0390918B030E946F
:1015F00025048FB7F8948090CD029090CE02A090F1
:10160000CF02B090D0028FBF80918503882309F468
:101610004FC080918603882321F18091810381113D
:1016200020C080918A0390918B030E94D203813065
:1016300009F43EC02FB7F8948091CD029091CE026C
:10164000A091CF02B091D0022FBF88199909AA09A1
:10165000BB098E3E9240A105B10550F50E94450A96
:10166000E0CFE0918403E9508EEE92E0E33038F46D
:10167000F0E0EE0FFF1FEC5EFD4F808191814C0189
:10168000B12CA12C80918203882329F060E0809105
:1016900083030E942C03C501B4010E946E0A80914D
:1016A0008203882329F061E0809183030E942C0348
:1016B000412C512C32014394F12CE12C8091D50224
:1016C0009091D602E816F9060CF00EC185E592E07D
:1016D0000E941A084AE0C301B2010E9427088DE562
:1016E00092E00E941A080E2D80918803E816B8F146
:1016F00060E070E08EEF92EC6093C2027093C302E0
:101700008093C4029093C50242E00E949A0881E649
:1017100092E00E941A0826E636E646EE5FE3609104
:10172000C2027091C3028091C4029091C5020E94CE
:10173000501420E030E040E052E40E94871242E082
:101740000E949A088AE692E00E948C088FEFE81ABD
:10175000F80A2FEF421A520A620A720AAFCFE091DA
:101760008A03F0918B0313861586148612861186E0
:1017700010861782168215821482138210E0BE0131
:10178000665F7F4F80918A0390918B030E9436069B
:10179000882309F4ADCF011721F01F5F011778F7F7
:1017A000A7CF67E0CE010A960E94BB0399898913EF
:1017B000F4CFBE016F5F7F4FCE010A960E94B00446
:1017C000882309F495CF8A81812C912C540187FFBD
:1017D00006C0812C912CF8EFAF2EBB24BA949A85C9
:1017E00049819B33E9F52D8127FF3AC040FD80CF29
:1017F000042F10E030E020E073E0000F111F221FE3
:10180000331F7A95D1F7B901A801407E577066273A
:10181000772790E0B0E0A0E08C019D01EBE0000FA5
:10182000111F221F331FEA95D1F7042B152B262BEE
:10183000372B082919292A293B29013854EE150785
:101840005FEF250735070CF453CFC901B8010E949B
:101850009B1320E030E040E05CE30E9450144CCF4A
:10186000082F10E0102F0027110F110F110F88E023
:10187000489FA0011124042B152B012E000C220BD4
:10188000330B082919292A293B299031B1F668859B
:10189000662399F270E08F81AB01481B5109CA01A0
:1018A0009695982F8827979587950E94C214CB010B
:1018B000770FAA0BBB0B53E0000F111F221F331F22
:1018C0005A95D1F700782770332700521109210962
:1018D0003109800F911FA21FB31F95018401082BAE
:1018E000192B2A2B3B2BA9CF88E492E00E948C086D
:1018F00068EE73E080E090E00E946E0A63CE1F9372
:10190000CF93DF93FC01A781B085109751F06385D9
:101910007485ED91FC9111970480F581E02DCD0146
:1019200019958FB7F894C091C802D091C902881F49
:101930008827881F0E946D051FB7F894111F112773
:10194000111F1C161D060CF040C08091AE03909133
:10195000AF03C817D907CCF5E091AC03F091AD0304
:10196000CE01880F991FE80FF91FA081B181109750
:1019700061F114968D919C911597181619062CF506
:101980001696EC911697E37084E0E89FF00111241D
:10199000E952FD4F828193810197938382838091E5
:1019A000C8029091C9028C179D0761F48FEF9FEFD9
:1019B00015969C938E9314970E94450A812F0E943E
:1019C0006D05FFCFCE010E948305812FDF91CF915E
:1019D0001F910C946D0593E0E92EF12C23E2C22EA9
:1019E000D12C812C912C5401D0E0C0E060E080919A
:1019F000A6030E942C03C7010197F1F761E08091D3
:101A0000A6030E942C03C6010197F1F760E08091C4
:101A1000A6030E942C03F894E091A803F091A90377
:101A2000EC0FFD1F808191819927FC01EE58FD4F3D
:101A30006491FC01E45DFD4FE491F0E0EE0FFF1FC7
:101A4000EE5EFD4F8591949109EE1BE520E030E0BC
:101A5000462F0E946A0E2B013C014114510461047F
:101A6000710439F08FEF481A580A680A780A8FE033
:101A7000782278948EE692E00E941A084AE0C50126
:101A8000B4010E94270880E792E00E941A08C3016F
:101A9000B2010E94991324E43BE44BE652E40E9415
:101AA000F81241E00E949A0882E792E00E948C08B6
:101AB00022968FEF881A980AA80AB80AC830D1056A
:101AC00009F094CF68EE73E080E090E00E946E0A27
:101AD00088CF1F920F920FB60F9211240BB60F9260
:101AE0002F933F934F935F936F937F938F939F9326
:101AF000AF93BF93EF93FF9384EE92E00E940502B1
:101B0000FF91EF91BF91AF919F918F917F916F91D5
:101B10005F914F913F912F910F900BBE0F900FBE91
:101B20000F901F9018951F920F920FB60F921124CD
:101B30000BB60F922F938F939F93EF93FF93E091A8
:101B4000F402F091F5028081E091FA02F091FB023B
:101B500082FD1DC090818091FD028F5F8F73209167
:101B6000FE02821741F0E091FD02F0E0EC51FD4FE2
:101B7000958F8093FD02FF91EF919F918F912F910F
:101B80000F900BBE0F900FBE0F901F901895808185
:101B9000F2CF1F920F920FB60F9211242F933F9303
:101BA0008F939F93AF93BF938091CD029091CE027C
:101BB000A091CF02B091D0023091CC0223E0230F4C
:101BC0002D3758F50196A11DB11D2093CC028093AD
:101BD000CD029093CE02A093CF02B093D002809119
:101BE000D1029091D202A091D302B091D402019679
:101BF000A11DB11D8093D1029093D202A093D30274
:101C0000B093D402BF91AF919F918F913F912F914B
:101C10000F900FBE0F901F90189526E8230F029685
:101C2000A11DB11DD2CF1F920F920FB60F9211249A
:101C30000BB60F922F933F934F935F936F937F93C6
:101C40008F939F93AF93BF93EF93FF93CF93DF93C4
:101C50001F92CDB7DEB7CE0101960E947305809129
:101C6000E302882369F12091C8023091C902809172
:101C7000C6029091C7022817390711F58091CA0250
:101C80009091CB0218161906DCF00E947609898122
:101C90000E946D050F90DF91CF91FF91EF91BF9161
:101CA000AF919F918F917F916F915F914F913F91F4
:101CB0002F910F900BBE0F900FBE0F901F90189595
:101CC0008091CA029091CB0201979093CB028093AE
:101CD000CA02DDCFCF92DF92EF92FF920F931F9354
:101CE000E82FF92F05C0015011092109310961F1CF
:101CF000908196239417B9F305C001501109210969
:101D0000310911F1908196239413F7CFC12CD12C76
:101D1000E12CF12C0AC08FEFC81AD80AE80AF80A99
:101D20000C151D052E053F0579F08081862384174B
:101D300091F36C2D7D2D8E2D9F2D1F910F91FF9076
:101D4000EF90DF90CF90089560E070E080E090E049
:101D50001F910F91FF90EF90DF90CF9008958091A9
:101D6000A8039091A903009711F00E948E1580910D
:101D7000AC039091AD03009711F00C948E1508956B
:101D8000CF93DF931092E7021092E60288EE93E081
:101D9000A0E0B0E08093E8029093E902A093EA0209
:101DA000B093EB0288E392E09093E5028093E40223
:101DB00085EC90E09093F1028093F00284EC90E047
:101DC0009093F3028093F20280EC90E09093F502FE
:101DD0008093F40281EC90E09093F7028093F602F6
:101DE00082EC90E09093F9028093F80286EC90E008
:101DF0009093FB028093FA021092FD021092FE0271
:101E00001092FF02109200031092AD031092AC03E7
:101E10001092AF031092AE031092B1031092B00370
:101E200088E090E00E94F214FC018AE290E0918345
:101E3000808388E290E09383828386E290E09583BA
:101E4000848384E290E0978386838CE290E0909391
:101E5000A7038093A603F093A903E093A80384E06B
:101E600090E09093AB038093AA0361E08CE20E9420
:101E70005A03D0E0C0E0E091A803F091A903EC0F71
:101E8000FD1F60E080810E945A032296C830D10570
:101E900091F760E08EE20E945A03E0EAF2E0E491FA
:101EA000E0939803EAE5F2E0E491F0E0EE0FFF1F23
:101EB000EE5EFD4F8591949190939A0380939903E0
:101EC0001092A3031092A5031092A4031092A203F0
:101ED0001092A1031092A00310929F0310929E03F0
:101EE00010929D0310929C0310929B031092880302
:101EF000109289031092810389E08093840381E02A
:101F000080938503809386038093870310928203D6
:101F100010929703109296038FEF80939403109280
:101F2000950388E993E090938B0380938A03DF9174
:101F3000CF910895CF93DF93CDB7DEB761970FB6FA
:101F4000F894DEBF0FBECDBF789484B5826084BDA7
:101F500084B5816084BD85B5826085BD85B58160AD
:101F600085BD80916E00816080936E00109281002B
:101F700080918100826080938100809181008160E6
:101F800080938100809180008160809380008091A7
:101F9000B10084608093B1008091B0008160809333
:101FA000B0008091910082608093910080919100B7
:101FB0008160809391008091900081608093900077
:101FC0008091A10082608093A1008091A100816036
:101FD0008093A1008091A00081608093A0008091F7
:101FE0002101826080932101809121018160809391
:101FF00021018091200181608093200180917A00ED
:10200000846080937A0080917A00826080937A0065
:1020100080917A00816080937A0080917A00806854
:1020200080937A001092C100E091F402F091F502E1
:1020300082E08083E091F002F091F1021082E09161
:10204000F202F091F3028FEC80831092FC02E09197
:10205000F802F091F90286E08083E091F602F091B7
:10206000F702808180618083E091F602F091F702AF
:10207000808188608083E091F602F091F702808190
:1020800080688083E091F602F091F70280818F7D75
:10209000808361E08DE00E945A0362E08EE20E943C
:1020A0005A0313E001E0E0918A03F0918B03138659
:1020B000158614861286118610861782168215825E
:1020C00014821382109288031092890362E370E0F5
:1020D00080E090E00E946E0ABE01665F7F4F8091B3
:1020E0008A0390918B030E943606882309F47AC0F4
:1020F00067E0CE010A960E94BB0399898913ECCF51
:10210000809188038F5F809388038A85883231F0BD
:1021100008F04EC0803111F08232F1F680918903CF
:102120008F5F8093890380918103811128C0809102
:102130008A0390918B030E947804BE01665F7F4FF3
:1021400080918A0390918B030E94590440E064EBD4
:1021500080918A0390918B030E94250480918A03C9
:1021600090918B030E94D203F82E80918A03909164
:102170008B030E947804F11002C0009381038A85CA
:10218000803109F1BE016F5F7F4FCE010A960E9438
:10219000B004882359F08D819A859B3311F487FD13
:1021A00012C08F3391F058F48F31C1F080E00EC02F
:1021B0008B3309F4B3CF823409F08ECFAFCF8F3594
:1021C00079F08F3799F78CE001C08AE09091840311
:1021D000981708F081CF809384037ECF89E0F6CFF3
:1021E0008BE0F4CF80918803811103C0115009F076
:1021F0005ACF86E792E00E941A088AE892E00E948D
:102200001A0860918803862F90E09093D6028093FD
:10221000D50270E090E080E04AE00E94270881E962
:1022200092E00E948C0888E492E00E948C088BE97E
:1022300092E00E948C0889EA92E00E948C08CE010C
:102240000A960E9473058091E302811146C001E065
:1022500010E0109303020093020284E090E00E94D9
:10226000B60687E090E00E94F21427E0FC0111928C
:102270002A95E9F72EE132E0FC01318320830E94A8
:10228000F306A091AC03B091AD03ED91FC911197D1
:1022900015821482868181608683ED91FC91E681AE
:1022A000E37084E0E89FF0011124E952FD4F1383AD
:1022B0000283CE0101960E94730584B5826084BDBD
:1022C00089EF87BD80916E00826080936E00898166
:1022D0000E946D0581E08093E3028A850E946D056E
:1022E0008BEE9CE00E94230787EA9AE00E94230776
:1022F00088ED9AE00E9423070E949402FDCF8F92FE
:102300009F92AF92BF92CF92DF92EF92FF92CF93C4
:10231000DF93EC01688179818A819B816115710568
:102320008105910521F464E279ED8BE597E02DE1DB
:1023300033EF41E050E00E94231249015A019B0112
:10234000AC01A7EAB1E40E9442126B017C01ACEE41
:10235000B4EFA50194010E945012C60ED71EE81ECC
:10236000F91EF7FE06C081E0C81AD108E10880E82E
:10237000F80AC882D982EA82FB82C701B6019F7738
:10238000DF91CF91FF90EF90DF90CF90BF90AF9013
:102390009F908F9008958F929F92AF92BF92CF920D
:1023A000DF92EF92FF92609104027091050280919A
:1023B000060290910702611571058105910521F4CE
:1023C00064E279ED8BE597E02DE133EF41E050E0F9
:1023D0000E94231249015A019B01AC01A7EAB1E412
:1023E0000E9442126B017C01ACEEB4EFA501940196
:1023F0000E945012C60ED71EE81EF91EF7FE06C038
:1024000081E0C81AD108E10880E8F80AC092040205
:10241000D0920502E0920602F0920702C701B601CF
:102420009F77FF90EF90DF90CF90BF90AF909F90FD
:102430008F900895609304027093050280930602C2
:10244000909307020895052E97FB1EF400940E94B6
:102450003A1257FD07D00E94551207FC03D04EF4E4
:102460000C943A1250954095309521953F4F4F4F1F
:102470005F4F089590958095709561957F4F8F4F30
:102480009F4F08950E947712A59F900DB49F900DC5
:10249000A49F800D911D11240895B7FF0C94421242
:1024A0000E944212821B930B0895A1E21A2EAA1BCE
:1024B000BB1BFD010DC0AA1FBB1FEE1FFF1FA217F4
:1024C000B307E407F50720F0A21BB30BE40BF50BF1
:1024D000661F771F881F991F1A9469F7609570957A
:1024E000809590959B01AC01BD01CF010895A29FFD
:1024F000B001B39FC001A39F700D811D1124911DD8
:10250000B29F700D811D1124911D08955058BB2755
:10251000AA270E949E120C9411140E94031438F0F2
:102520000E940A1420F039F49F3F19F426F40C9409
:1025300000140EF4E095E7FB0C94FA13E92F0E94C7
:10254000221458F3BA17620773078407950720F01F
:1025500079F4A6F50C9444140EF4E0950B2EBA2FE2
:10256000A02D0B01B90190010C01CA01A001112499
:10257000FF27591B99F0593F50F4503E68F11A1645
:10258000F040A22F232F342F4427585FF3CF4695D6
:1025900037952795A795F0405395C9F77EF41F16F8
:1025A000BA0B620B730B840BBAF09150A1F0FF0FC2
:1025B000BB1F661F771F881FC2F70EC0BA0F621FAE
:1025C000731F841F48F4879577956795B795F7959E
:1025D0009E3F08F0B0CF9395880F08F09927EE0F33
:1025E0009795879508950E94D61308F481E0089581
:1025F0000E940C130C9411140E940A1458F00E94AB
:10260000031440F029F45F3F29F00C94FA135111A0
:102610000C9445140C9400140E94221468F399231E
:10262000B1F3552391F3951B550BBB27AA276217CE
:102630007307840738F09F5F5F4F220F331F441FDB
:10264000AA1FA9F335D00E2E3AF0E0E832D091500F
:102650005040E695001CCAF72BD0FE2F29D0660FFC
:10266000771F881FBB1F261737074807AB07B0E83F
:1026700009F0BB0B802DBF01FF2793585F4F3AF045
:102680009E3F510578F00C94FA130C9445145F3F6B
:10269000E4F3983ED4F3869577956795B795F795CB
:1026A0009F5FC9F7880F911D9695879597F90895B3
:1026B000E1E0660F771F881FBB1F6217730784074F
:1026C000BA0720F0621B730B840BBA0BEE1F88F75E
:1026D000E09508950E942A1488F09F5798F0B92F2A
:1026E0009927B751B0F0E1F0660F771F881F991F47
:1026F0001AF0BA95C9F714C0B13091F00E94441491
:10270000B1E008950C944414672F782F8827B85FA0
:1027100039F0B93FCCF3869577956795B395D9F79E
:102720003EF490958095709561957F4F8F4F9F4FA8
:102730000895E89409C097FB3EF4909580957095B4
:1027400061957F4F8F4F9F4F9923A9F0F92F96E9FD
:10275000BB279395F695879577956795B795F11172
:10276000F8CFFAF4BB0F11F460FF1BC06F5F7F4F0F
:102770008F4F9F4F16C0882311F096E911C0772321
:1027800021F09EE8872F762F05C0662371F096E82A
:10279000862F70E060E02AF09A95660F771F881FF9
:1027A000DAF7880F9695879597F90895990F00089D
:1027B000550FAA0BE0E8FEEF16161706E807F90713
:1027C000C0F012161306E407F50798F0621B730BAE
:1027D000840B950B39F40A2661F0232B242B252B2F
:1027E00021F408950A2609F4A140A6958FEF811DD2
:1027F000811D089597F99F6780E870E060E0089573
:102800009FEF80EC089500240A9416161706180608
:102810000906089500240A941216130614060506E4
:102820000895092E0394000C11F4882352F0BB0F75
:1028300040F4BF2B11F460FF04C06F5F7F4F8F4FD8
:102840009F4F089557FD9058440F551F59F05F3F13
:1028500071F04795880F97FB991F61F09F3F79F0C2
:1028600087950895121613061406551FF2CF469544
:10287000F1DF08C0161617061806991FF1CF8695C6
:102880007105610508940895E894BB2766277727AA
:10289000CB0197F908950E94D61308F48FEF08959D
:1028A0000E9463140C9411140E94031438F00E94C7
:1028B0000A1420F0952311F00C94FA130C940014D0
:1028C00011240C9445140E94221470F3959FC1F3B7
:1028D000950F50E0551F629FF001729FBB27F00DCE
:1028E000B11D639FAA27F00DB11DAA1F649F662723
:1028F000B00DA11D661F829F2227B00DA11D621F72
:10290000739FB00DA11D621F839FA00D611D221F2B
:10291000749F3327A00D611D231F849F600D211D0F
:10292000822F762F6A2F11249F5750409AF0F1F092
:1029300088234AF0EE0FFF1FBB1F661F771F881FFB
:1029400091505040A9F79E3F510580F00C94FA1326
:102950000C9445145F3FE4F3983ED4F38695779545
:102960006795B795F795E7959F5FC1F7FE2B880FA1
:10297000911D9695879597F908950E94D613880B17
:10298000990B089597FB072E16F4009407D077FD56
:1029900009D00E94DE1407FC05D03EF49095819585
:1029A0009F4F0895709561957F4F0895EE0FFF1F1B
:1029B000881F8BBF0790F691E02D1994AA1BBB1BB3
:1029C00051E107C0AA1FBB1FA617B70710F0A61B2F
:1029D000B70B881F991F5A95A9F780959095BC0150
:1029E000CD0108950F931F93CF93DF93823091050C
:1029F00010F482E090E0E091B403F091B50330E090
:102A000020E0B0E0A0E0309799F42115310509F4F9
:102A10004AC0281B390B24303105D8F58A819B81A7
:102A20006115710589F1FB0193838283FE0111C059
:102A3000408151810281138148175907E0F04817FE
:102A4000590799F4109761F012960C931297139608
:102A50001C933296CF01DF91CF911F910F91089572
:102A60000093B4031093B503F4CF2115310551F051
:102A70004217530738F0A901DB019A01BD01DF01BC
:102A8000F801C1CFEF01F9CF9093B5038093B40360
:102A9000CDCFFE01E20FF31F8193919322503109B4
:102AA00039832883D7CF2091B2033091B303232BEE
:102AB00041F420910A0230910B023093B30320932A
:102AC000B20320910802309109022115310541F429
:102AD0002DB73EB740910C0250910D02241B350BCF
:102AE000E091B203F091B303E217F307A0F42E1BB9
:102AF0003F0B2817390778F0AC014E5F5F4F241762
:102B0000350748F04E0F5F1F5093B3034093B20355
:102B1000819391939FCFF0E0E0E09CCFCF93DF9340
:102B20000097E9F0FC01329713821282A091B4035E
:102B3000B091B503ED0130E020E01097A1F42081C1
:102B40003181820F931F2091B2033091B303281774
:102B5000390709F061C0F093B303E093B203DF914A
:102B6000CF910895EA01CE17DF07E8F54A815B812E
:102B70009E0141155105B1F7E901FB83EA834991B3
:102B80005991C40FD51FEC17FD0761F48081918125
:102B90000296840F951FE90199838883828193812E
:102BA0009B838A83F0E0E0E012968D919C911397CD
:102BB0000097B9F52D913C911197CD010296820FA6
:102BC000931F2091B2033091B3032817390739F6C8
:102BD000309751F51092B5031092B403B093B3033C
:102BE000A093B203BCCFD383C28340815181840FB1
:102BF000951FC817D90761F44E5F5F4F888199818F
:102C0000480F591F518340838A819B81938382831C
:102C10002115310509F0B0CFF093B503E093B4036B
:102C20009ECFFD01DC01C0CF13821282D7CF11E00D
:102C3000CDE5D1E000E006C0802FFE010E94D61451
:102C40002196011DCE35D10780E00807A9F7F89439
:102C5000FFCFFFFF0100010000000000B60380006D
:102C60003200210011005E00BC007701000000006E
:102C70007B05FD050000000024062C060000000076
:102C80008205FF057C050000000027029101BE01BE
:102C90007402EF01CD01E1010D0A006E616E006961
:102CA0006E66006F76660053656E736F722000204B
:102CB0003A2000C2B04320207C202000C2B0460051
:102CC00053003A00636D20004C6F636174696E6756
:102CD00020646576696365732E2E2E00466F756ECF
:102CE00064200020646576696365732E0053697300
:102CF00074656D61206C6973746F003D3D3D3D3DB1
:102D00003D3D3D3D3D3D3D3D3D3D3D3D3D3D3D3DF3
:042D10003D3D3D0008
:020000040003F7
:10E000000D9489F10D94B2F10D94B2F10D94B2F129
:10E010000D94B2F10D94B2F10D94B2F10D94B2F1F0
:10E020000D94B2F10D94B2F10D94B2F10D94B2F1E0
:10E030000D94B2F10D94B2F10D94B2F10D94B2F1D0
:10E040000D94B2F10D94B2F10D94B2F10D94B2F1C0
:10E050000D94B2F10D94B2F10D94B2F10D94B2F1B0
:10E060000D94B2F10D94B2F10D94B2F10D94B2F1A0
:10E070000D94B2F10D94B2F10D94B2F10D94B2F190
:10E080000D94B2F10D94B2F10D94B2F10D94B2F180
:10E090000D94B2F10D94B2F10D94B2F10D94B2F170
:10E0A0000D94B2F10D94B2F10D94B2F10D94B2F160
:10E0B0000D94B2F10D94B2F10D94B2F10D94B2F150
:10E0C0000D94B2F10D94B2F10D94B2F10D94B2F140
:10E0D0000D94B2F10D94B2F10D94B2F10D94B2F130
:10E0E0000D94B2F141546D656761323536300041AF
:10E0F000726475696E6F206578706C6F72657220DE
:10E1000073746B3530305632206279204D4C530099
:10E11000426F6F746C6F616465723E004875683F52
:10E1200000436F6D70696C6564206F6E203D200048
:10E130004350552054797065202020203D20005FF9
:10E140005F4156525F415243485F5F3D2000415658
:10E1500052204C696243205665723D20004743437C
:10E160002056657273696F6E203D20004350552024
:10E1700049442020202020203D20004C6F7720663D
:10E18000757365202020203D20004869676820665F
:10E190007573652020203D200045787420667573D6
:10E1A00065202020203D20004C6F636B2066757336
:10E1B000652020203D20004D617220203720323024
:10E1C000313300312E362E3800342E332E350056A2
:10E1D00023202020414444522020206F7020636F70
:10E1E00064652020202020696E73747275637469E1
:10E1F0006F6E2061646472202020496E74657272B3
:10E20000757074006E6F20766563746F7200726A49
:10E210006D702020006A6D70200057686174207056
:10E220006F72743A00506F7274206E6F7420737541
:10E2300070706F72746564004D7573742062652030
:10E2400061206C6574746572002000577269747483
:10E25000696E672045450052656164696E672045B7
:10E26000450045452065727220636E743D00504F35
:10E27000525400303D5A65726F2061646472003FF1
:10E280003D43505520737461747300403D454550C3
:10E29000524F4D207465737400423D426C696E6B41
:10E2A000204C454400453D44756D70204545505215
:10E2B0004F4D00463D44756D7020464C415348001B
:10E2C000483D48656C70004C3D4C69737420492F83
:10E2D0004F20506F72747300513D51756974005234
:10E2E0003D44756D702052414D00563D73686F7707
:10E2F00020696E7465727275707420566563746FF0
:10E30000727300593D506F727420626C696E6B00BD
:10E310002A0011241FBECFEFD1E2DEBFCDBF01E046
:10E320000CBF12E0A0E0B2E0EEE1FDEF03E00BBFB6
:10E3300002C007900D92A030B107D9F712E0A0E01B
:10E34000B2E001C01D92AE30B107E1F70F9460F367
:10E350000D948DFE01E20EBF0FEF0DBF11241FBE05
:10E360000D9460F30D9400F020E030E040ED57E0B4
:10E3700005C0FA013197F1F72F5F3F4F2817390792
:10E38000C0F308959C01260F311DC901A0E0B0E043
:10E390002F5F3F4FABBFFC018791882361F08093D3
:10E3A000C6008091C00086FFFCCF8091C0008064D1
:10E3B0008093C000EACF08958DE08093C6008091DD
:10E3C000C00086FFFCCF8091C00080648093C000B5
:10E3D0008AE08093C6008091C00086FFFCCF8091C8
:10E3E000C00080648093C00008950F94C2F10F9420
:10E3F000DCF10895FC019081992359F09093C600B7
:10E400008091C00086FFFCCF8091C0008064809323
:10E41000C0003196992379F70895282F982F929567
:10E420009F70892F805D8A3308F0895F8093C600D2
:10E430008091C00086FFFCCF8091C00080648093F3
:10E44000C000822F8F70982F905D9A3308F0995FEB
:10E450009093C6008091C00086FFFCCF8091C000E1
:10E4600080648093C00008959C01FB01853691056E
:10E470001CF46330710594F0C90164E670E00F94F8
:10E480002EFE605D7F4F6093C6008091C00086FFC6
:10E49000FCCF8091C00080648093C0002B30310598
:10E4A00014F43297B4F0C90164E670E00F942EFEC4
:10E4B0006AE070E00F942EFE605D7F4F6093C600AF
:10E4C0008091C00086FFFCCF8091C0008064809363
:10E4D000C000C9016AE070E00F942EFEC0968093E0
:10E4E000C6008091C00086FFFCCF8091C000806490
:10E4F0008093C00008951F93182F8EE692EE60E07F
:10E500000F94C2F11093C6008091C00086FFFCCF2B
:10E510008091C00080648093C0000F94DCF11F9153
:10E5200008952F923F924F925F926F927F928F92B7
:10E530009F92AF92BF92CF92DF92EF92FF920F9392
:10E540001F93DF93CF93CDB7DEB762970FB6F894E2
:10E55000DEBF0FBECDBF382E622ECA01DB015C01CB
:10E560006D01772420E2222E2E010894411C511CBB
:10E570008BC081E0A81680E0B80681E0C80680E084
:10E58000D80628F0C601AA27BB270F940DF2BB2797
:10E59000AD2D9C2D8B2D0F940DF28A2D0F940DF225
:10E5A0002092C6008091C00086FFFCCF8091C00001
:10E5B00080648093C0009DE29093C6008091C0006B
:10E5C00086FFFCCF8091C00080648093C0002092C1
:10E5D000C6008091C00086FFFCCF8091C00080649F
:10E5E0008093C00019828601750188249924A1E0D6
:10E5F0003A1651F03A1620F0B2E03B1661F409C029
:10E600000BBFF701779007C0C7010F9477FE782EF4
:10E6100002C0F7017080872D0F940DF22092C60082
:10E620008091C00086FFFCCF8091C0008064809301
:10E63000C000872D8052F401EF70F0708F3520F408
:10E64000E40DF51D708204C0E40DF51D8EE280839B
:10E650000894E11CF11C011D111D0894811C911CE2
:10E6600090E18916910409F0C2CF80E190E0A0E02A
:10E67000B0E0A80EB91ECA1EDB1E198AC2010F9493
:10E68000FAF10F94DCF16A94662009F072CF629679
:10E690000FB6F894DEBF0FBECDBFCF91DF911F91B3
:10E6A0000F91FF90EF90DF90CF90BF90AF909F9031
:10E6B0008F907F906F905F904F903F902F90089534
:10E6C0002F923F924F925F926F927F928F929F9282
:10E6D000AF92BF92CF92DF92EF92FF920F931F9370
:10E6E000DF93CF93CDB7DEB7CD53D1400FB6F894BB
:10E6F000DEBF0FBECDBF01E20EBF0FEF0DBF94B75F
:10E70000F894A89514BE80916000886180936000A1
:10E7100010926000789493FF05C0E0910002F091A0
:10E7200001021995279A2F9A8091C00082608093E8
:10E73000C00080E18093C40088E18093C1000000A4
:10E74000EE24FF24870144E0A42EB12CCC24DD2448
:10E7500024C0C5010197F1F70894E11CF11C011DCB
:10E76000111D21E2E2162EE4F20620E0020720E06D
:10E77000120718F031E0C32ED12CC801B70127ECE5
:10E780003BE140E050E00F9441FE611571058105C9
:10E79000910519F485B1805885B98091C00087FD35
:10E7A00003C0C114D104A9F2A6014F5F5F4FC25E3E
:10E7B000DE4F59834883CE51D140C25EDE4F8881FF
:10E7C0009981CE51D140019711F00D9410FEC05D9A
:10E7D000DE4F19821882C053D14060E0C15DDE4F28
:10E7E0001882CF52D14088249924C35DDE4F19820C
:10E7F0001882CD52D140C05EDE4F188219821A8233
:10E800001B82C052D140CE5CDE4F188219821A8220
:10E810001B82C253D140EE24FF2487010BBFF701B6
:10E8200007911691C45CDE4F19830883CC53D14005
:10E830000D940BFEC25EDE4F28813981CE51D1404E
:10E840002130310509F52091C600C25EDE4F1982E4
:10E850001882CE51D14022C02F5F3F4F4F4F5F4FA4
:10E86000213082E138078AE7480780E0580780F0C6
:10E87000C45CDE4FE881F981CC53D140EF5FFF4F9C
:10E8800019F0EE27FF27099420E030E040E050E047
:10E890008091C00087FFE0CF2091C600C35DDE4FAE
:10E8A00048815981CD52D1404F5F5F4FC35DDE4FEC
:10E8B00059834883CD52D140213209F063C64A3092
:10E8C000510508F05FC60894811C911C53E0851621
:10E8D000910409F059C600E010E018C081E280936D
:10E8E000C6008091C00086FFFCCF8091C00080648C
:10E8F0008093C0002F5F3F4F2931310579F70F9486
:10E90000DCF10F5F1F4F0530110519F020E030E0FA
:10E91000E5CF10920A0210920B0210920C02109294
:10E920000D02109206021092070210920802109235
:10E930000902109202021092030210920402109235
:10E9400005028FEE90EE60E00F94F5F180E191EE1C
:10E9500060E00F94C2F18091C00087FFFCCF9091DE
:10E96000C600903608F09F759032B8F09093C600BC
:10E970008091C00086FFFCCF8091C00080648093AE
:10E98000C000A0E2A093C6008091C00086FFFCCF2B
:10E990008091C00080648093C000983409F4D7C18E
:10E9A0009934B8F4923409F459C1933458F490333B
:10E9B00019F1903308F4E3C59F33A1F1903409F0C5
:10E9C000DEC5BDC0953409F470C1963409F0D7C5D1
:10E9D00098C1923509F42BC2933538F49C3409F46C
:10E9E000F5C1913509F0CBC518C2963509F445C279
:10E9F000993509F0C4C567C483E792EE62E00F94CD
:10EA0000F5F110920602109207021092080210927D
:10EA1000090210920A0210920B0210920C0210923C
:10EA20000D0213C18FE792EE62E00F94F5F18FEEC5
:10EA300090EE60E00F94F5F181E291EE60E00F94CA
:10EA4000C2F187EB91EE60E00F94F5F180E391EE77
:10EA500060E00F94C2F184EE90EE60E00F94F5F167
:10EA60008FE391EE60E00F94C2F186E090E061E008
:10EA700070E00F9434F20F94DCF18DE591EE60E0DC
:10EA80000F94C2F189EC91EE60E00F94F5F18EE401
:10EA900091EE60E00F94C2F183EC91EE60E00F9490
:10EAA000F5F18CE691EE60E00F94C2F18EE10F94E7
:10EAB0000DF288E90F940DF281E00F940DF20F949E
:10EAC000DCF18BE791EE60E00F94C2F119E0E0E039
:10EAD000F0E010935700E4918E2F0F940DF20F94F5
:10EAE000DCF18AE891EE60E00F94C2F1E3E0F0E03F
:10EAF00010935700E4918E2F0F940DF20F94DCF1D8
:10EB000089E991EE60E00F94C2F1E2E0F0E0109349
:10EB10005700E4918E2F0F940DF20F94DCF188EAE8
:10EB200091EE60E00F94C2F1E1E0F0E01093570045
:10EB30001491812F0F940DF20F94DCF107CF8BE825
:10EB400092EE62E00F94F5F18BE492EE60E00F94A8
:10EB5000F5F10F94DCF100E010E019C0C8016F2D51
:10EB60000F947FFEFF2031F489E492EE60E00F9471
:10EB7000C2F10BC0F092C6008091C00086FFFCCFAE
:10EB80008091C00080648093C0000F5F1F4FC80158
:10EB900081519F41A0E0B0E0ABBFFC01F790BAE229
:10EBA000FB1621F0E2E000301E07C1F60F94DCF105
:10EBB0000F94DCF187E592EE60E00F94F5F10F948D
:10EBC000DCF1CC24DD2400E010E01EC0C8010F946D
:10EBD00077FEF82E882331F489E492EE60E00F94FA
:10EBE000C2F10BC08093C6008091C00086FFFCCFAD
:10EBF0008091C00080648093C000FE1419F00894D6
:10EC0000C11CD11C0F5F1F4FC80181519F41A0E063
:10EC1000B0E0ABBFFC01E790FAE2EF1621F022E092
:10EC20000030120799F60F94DCF10F94DCF182E6C4
:10EC300092EE60E00F94C2F1C60161E070E00F94C3
:10EC400034F20F94DCF10F94DCF110920202109276
:10EC50000302109204021092050278CE89E992EE26
:10EC600062E00F94F5F1279A2F9A16C02F9880E052
:10EC700090E0E0EDF7E03197F1F7019684369105E9
:10EC8000C1F72F9A80E090E0E0EDF7E03197F1F7DF
:10EC9000019684369105C1F78091C00087FFE6CFC9
:10ECA0008091C00087FFFCCF64C485EA92EE62E0E9
:10ECB0000F94F5F140910202509103026091040219
:10ECC0007091050281E020E10F9491F2809102029F
:10ECD00090910302A0910402B091050280509F4FD1
:10ECE000AF4FBF4F8093020290930302A0930402A0
:10ECF000B093050280509041A040B04008F426CE69
:10ED0000A4CF83EB92EE62E00F94F5F140910602FE
:10ED100050910702609108027091090280E020E1A1
:10ED20000F9491F28091060290910702A09108023F
:10ED3000B091090280509F4FAF4FBF4F80930602A2
:10ED400090930702A0930802B0930902FFCD80ECD4
:10ED500092EE62E00F94F5F183E792EE60E00F949B
:10ED6000F5F18FE792EE60E00F94F5F18BE892EE0B
:10ED700060E00F94F5F189E992EE60E00F94F5F10F
:10ED800085EA92EE60E00F94F5F183EB92EE60E09D
:10ED90000F94F5F180EC92EE60E00F94F5F187ECC2
:10EDA00092EE60E00F94F5F188ED92EE60E00F9442
:10EDB000F5F18FED92EE60E00F94F5F18AEE92EEB0
:10EDC00060E00F94F5F183E093EEBDCD87EC92EE19
:10EDD00062E00F94F5F181E40F947BF282E40F94EA
:10EDE0007BF283E40F947BF284E40F947BF285E45E
:10EDF0000F947BF286E40F947BF287E40F947BF20E
:10EE000088E40F947BF28AE40F947BF28BE40F94F6
:10EE10007BF28CE40F947BF299CD88ED92EE62E068
:10EE20000F94F5F1772473948824992409C48FED05
:10EE300092EE62E00F94F5F140910A0250910B02BC
:10EE400060910C0270910D0282E020E10F9491F22A
:10EE500080910A0290910B02A0910C02B0910D02D8
:10EE600080509F4FAF4FBF4F80930A0290930B0289
:10EE7000A0930C02B0930D0269CD8AEE92EE62E08F
:10EE80000F94F5F184EE90EE60E00F94F5F18FECC5
:10EE900091EE60E00F94F5F1662477244301CC5D98
:10EEA000DE4F19821882C452D140D401C301B695F5
:10EEB000A79597958795CA5DDE4F88839983AA8326
:10EEC000BB83C652D140CC5DDE4FA881B981C4520C
:10EED000D1401196CC5DDE4FB983A883C452D14096
:10EEE000CD0162E070E00F9434F2B0E2B093C6005E
:10EEF0008091C00086FFFCCF8091C0008064809329
:10EF0000C000EDE2E093C6008091C00086FFFCCF18
:10EF10008091C00080648093C000F0E2F093C6004E
:10EF20008091C00086FFFCCF8091C00080648093F8
:10EF3000C000CA5DDE4FE880F9800A811B81C6529D
:10EF4000D140BB27A12F902F8F2D0F940DF2CA5DBA
:10EF5000DE4F8881C652D1400F940DF2B0E2FB2EF5
:10EF6000F092C6008091C00086FFFCCF8091C00067
:10EF700080648093C0000DE30093C6008091C000C0
:10EF800086FFFCCF8091C00080648093C00010E2B7
:10EF90001093C6008091C00086FFFCCF8091C00016
:10EFA00080648093C0008BBEF3012791C65DDE4F65
:10EFB0002883CA52D140A22EBB24CC24DD2408943D
:10EFC000611C711C811C911C8BBEF3018791282E42
:10EFD0003324442455240894611C711C811C911C09
:10EFE0008BBEF3013791C55DDE4F3883CB52D140E4
:10EFF0000894611C711C811C911C8BBEF30147910C
:10F00000C45DDE4F4883CC52D140ADEFEA2EAFEF66
:10F01000FA2EAFEF0A2FAFEF1A2F6E0C7F1C801E57
:10F02000911E142D032DF22CEE24EA0CFB1C0C1D5A
:10F030001D1D0F940DF220E22093C6008091C000A8
:10F0400086FFFCCF8091C00080648093C000C65DC5
:10F05000DE4F8881CA52D1400F940DF230E23093D6
:10F06000C6008091C00086FFFCCF8091C000806404
:10F070008093C000C45DDE4F8881CC52D1400F9494
:10F080000DF240E24093C6008091C00086FFFCCFA5
:10F090008091C00080648093C000C55DDE4F888190
:10F0A000CB52D1400F940DF250E25093C6008091A4
:10F0B000C00086FFFCCF8091C00080648093C000B8
:10F0C0008FEFE8168FEFF80680E0080780E018075A
:10F0D00031F484E092EE60E00F94C2F1DFC0D80119
:10F0E000C7018070907CA070B0708050904CA040A0
:10F0F000B040D1F52FEF3FE340E050E0E222F322B1
:10F1000004231523CA5DDE4FA880B980CA80DB8046
:10F11000C652D140AE0CBF1CC01ED11EAA0CBB1CD7
:10F12000CC1CDD1C8EE092EE60E00F94C2F1BB2798
:10F13000A12F902F8F2D0F940DF28E2D0F940DF285
:10F1400030E23093C6008091C00086FFFCCF8091F2
:10F15000C00080648093C0004EE34093C60080915D
:10F16000C00086FFFCCF87C08EE09EEFA0E0B0E03D
:10F17000E822F9220A231B239CE0E91694E9F90608
:10F1800090E0090790E0190709F088C0C45DDE4FE0
:10F19000A881CC52D140EA2EFF2400E010E0102FCD
:10F1A0000F2DFE2CEE24C55DDE4FB881CB52D14031
:10F1B000EB0EF11C011D111DD601C501817090706F
:10F1C000A070B070DC0199278827E80EF91E0A1F8D
:10F1D0001B1F20EF30E040E050E0A222B322C42207
:10F1E000D52241E1AA0CBB1CCC1CDD1C4A95D1F7F1
:10F1F000EA0CFB1C0C1D1D1D81E090E0A0E0B0E0BE
:10F20000282239224A225B2235E1220C331C441C7D
:10F21000551C3A95D1F7E20CF31C041D151D57013E
:10F220006801AA0CBB1CCC1CDD1C85E192EE60E0E1
:10F230000F94C2F1C801AA27BB270F940DF2BB2778
:10F24000A12F902F8F2D0F940DF28E2D0F940DF274
:10F2500090E29093C6008091C00086FFFCCF809121
:10F26000C00080648093C000AEE3A093C60080918C
:10F27000C00086FFFCCF8091C00080648093C000F6
:10F28000C601AA27BB270F940DF2BB27AD2D9C2DDD
:10F290008B2D0F940DF28A2D0F940DF20F94DCF14B
:10F2A000CC5DDE4FE881F981C452D140F99709F471
:10F2B0004DCBF4E0EF2EF12C012D112D6E0C7F1CA7
:10F2C000801E911EF2CD83E093EE62E00F94F5F183
:10F2D0008AE192EE60E00F94C2F18091C00087FF56
:10F2E000FCCF1091C6001F751093C6008091C0001E
:10F2F00086FFFCCF8091C00080648093C0000F9493
:10F30000DCF1812F81548A3108F036C1163409F4BA
:10F3100095C0173490F4133409F44EC0143430F40B
:10F320001134F1F0123409F01DC130C0143409F465
:10F3300059C0153409F016C16BC01A3409F4C4C0A1
:10F340001B3438F4173409F48FC0183409F00AC19B
:10F35000A1C01B3409F4D2C01C3409F003C1E8C0B9
:10F360008FEF81B90DC082B1809582B980E090E0C5
:10F37000E0EDF7E03197F1F70196883C9105C1F790
:10F380008091C00087FFEFCF12B8EFC08FEF84B934
:10F390000DC085B1809585B980E090E0E0EDF7E0A3
:10F3A0003197F1F70196883C9105C1F78091C00033
:10F3B00087FFEFCF15B8D9C08FEF87B90DC088B1DF
:10F3C000809588B980E090E0E0EDF7E03197F1F7C3
:10F3D0000196883C9105C1F78091C00087FFEFCF6F
:10F3E00018B8C3C08FEF8AB90DC08BB180958BB9A7
:10F3F00080E090E0E0EDF7E03197F1F70196883C8E
:10F400009105C1F78091C00087FFEFCF1BB8ADC059
:10F410008FEF8DB90DC08EB180958EB980E090E0F0
:10F42000E0EDF7E03197F1F70196883C9105C1F7DF
:10F430008091C00087FFEFCF1EB897C08FEF80BBD1
:10F440000DC081B3809581BB80E090E0E0EDF7E0F6
:10F450003197F1F70196883C9105C1F78091C00082
:10F4600087FFEFCF11BA81C08FEF83BB0DC084B38C
:10F47000809584BB80E090E0E0EDF7E03197F1F714
:10F480000196883C9105C1F78091C00087FFEFCFBE
:10F4900014BA6BC08FEF809301010FC080910201FD
:10F4A00080958093020180E090E0E0EDF7E03197F5
:10F4B000F1F70196883C9105C1F78091C00087FF64
:10F4C000EDCF1092020151C08FEF809304010FC065
:10F4D0008091050180958093050180E090E0E0ED4A
:10F4E000F7E03197F1F70196883C9105C1F78091DB
:10F4F000C00087FFEDCF1092050137C08FEF8093DA
:10F5000007010FC08091080180958093080180E079
:10F5100090E0E0EDF7E03197F1F70196883C910536
:10F52000C1F78091C00087FFEDCF109208011DC088
:10F530008FEF80930A010FC080910B01809580931B
:10F540000B0180E090E0E0EDF7E03197F1F70196F4
:10F55000883C9105C1F78091C00087FFEDCF1092E4
:10F560000B0103C085E292EEEEC98091C00087FFD7
:10F57000FCCF8091C600EAC988E392EEE4C98CE131
:10F5800091EEE1C988249924933011F1943028F444
:10F59000913089F09230B8F408C0953061F195301F
:10F5A000F0F0963009F048C043C02B3109F042C951
:10F5B00091E06BE13FC96227C15DDE4F2883CF52E6
:10F5C000D14092E037C9B22FA0E0622793E032C960
:10F5D000822F90E0A82BB92B622794E02BC92E3004
:10F5E00009F039C3622795E0C05DDE4F19821882A9
:10F5F000C053D1401FC9E1E0F0E0EC0FFD1FC05D3A
:10F60000DE4F08811981C053D140E00FF11F2083E4
:10F610000F5F1F4FC05DDE4F19830883C053D14079
:10F6200062270A171B0709F005C9D80196E002C92D
:10F63000261709F010C303C0973009F0FBC87724E0
:10F640009981933109F412C19431C8F4963009F4C8
:10F65000D8C0973050F4923009F406C1933009F4C1
:10F660006DC0913009F059C253C0913109F477C08F
:10F67000923108F0BBC0903109F04FC2F5C098310B
:10F6800009F487C0993150F4953109F4EFC09531F0
:10F6900008F4C6C1963109F040C2C2C19A3109F4DA
:10F6A0006CC09A3108F491C09B3109F45BC09D3164
:10F6B00009F033C29D81903359F48F81882311F46E
:10F6C0009EE11CC0813011F091E018C098E916C08D
:10F6D000892F807591F0903539F4E0E0F0E089E011
:10F6E0008093570094910AC0983539F4E3E0F0E034
:10F6F00089E080935700949101C090E01A821B82A8
:10F700008D818C831D829E831F8227E030E009C299
:10F710001A8288E08B8381E48C8386E58D8382E581
:10F720008E8389E48F8383E5888780E589878FE5E9
:10F730008A8782E38B872BE030E0F3C18A818139AD
:10F7400041F0823941F0803911F48FE005C080E04A
:10F7500003C082E001C08AE01A828B8344C0772410
:10F76000739482C08D81882311F48EE12CC0813086
:10F7700011F081E028C088E926C01A82E1E0F0E0BB
:10F7800089E08093570084918B831C8224E030E0D1
:10F79000C8C18B81803589F48C81883039F4E2E0EE
:10F7A000F0E089E08093570084910DC0E0E0F0E044
:10F7B00089E080935700849106C0E3E0F0E089E09F
:10F7C0008093570084911A82DFCF8D81836C99E0FA
:10F7D000E1E0F0E0082E90935700E89507B600FCB2
:10F7E000FDCF1A821B8223E030E09BC180EC8A832C
:10F7F000CE5CDE4F188219821A821B82C253D1401E
:10F800008EC18A8190E0A0E0B0E0582F44273327D2
:10F8100022278B8190E0A0E0B0E0DC0199278827C7
:10F82000282B392B4A2B5B2B8D8190E0A0E0B0E098
:10F83000282B392B4A2B5B2B8C8190E0A0E0B0E089
:10F84000BA2FA92F982F8827282B392B4A2B5B2BCF
:10F85000220F331F441F551FC05EDE4F288339839C
:10F860004A835B83C052D1401A8259C13A81C95C34
:10F87000DE4F3883C753D140CA5CDE4F1882C6536F
:10F88000D1408B81C82EDD24CA5CDE4F488159816E
:10F89000C653D140C42AD52A933109F082C0CE5C28
:10F8A000DE4F88819981AA81BB81C253D1408050AB
:10F8B000904CA340B04030F583E0CE5CDE4FE88052
:10F8C000F9800A811B81C253D140F70100935B008C
:10F8D00080935700E89507B600FCFDCFCE5CDE4F65
:10F8E000088119812A813B81C253D14000501F4FAA
:10F8F0002F4F3F4FCE5CDE4F088319832A833B8313
:10F90000C253D140C05EDE4F488159816A817B81FC
:10F91000C052D140DE011B9631E08C9111962C91A2
:10F9200011971296C75CDE4F2883C953D140C85C3B
:10F93000DE4F1882C853D14090E0C85CDE4FE881AA
:10F94000F981C853D1408E2B9F2B0C01FA01609393
:10F950005B0030935700E89511244E5F5F4F6F4F67
:10F960007F4F0EEFE02E0FEFF02ECE0CDF1CC114F8
:10F97000D10499F685E0C05EDE4F088119812A81A5
:10F980003B81C052D140F80120935B008093570027
:10F99000E89507B600FCFDCF81E180935700E8951C
:10F9A00035C0C05EDE4F88819981AA81BB81C0527B
:10F9B000D140B695A795979587957C018601ABE0D8
:10F9C000AA2EB12CAC0EBD1E0BC0D5016D915D01F0
:10F9D000C7010F947FFE0894E11CF11C01501040F8
:10F9E0000115110591F7A60160E070E0440F551F65
:10F9F000661F771FC05EDE4FE880F9800A811B8199
:10FA0000C052D1404E0D5F1D601F711F1A82C05E33
:10FA1000DE4F488359836A837B83C052D1407FC0C5
:10FA2000FA80C55CDE4FF882CB53D140C65CDE4F16
:10FA30001882CA53D1408B81C82EDD24C65CDE4FAC
:10FA400008811981CA53D140C02AD12A1A828981DA
:10FA5000BE016D5F7F4F843121F59601C05EDE4FA0
:10FA6000E880F9800A811B81C052D1400BBFF701A9
:10FA700087919691DB018C9311969C936E5F7F4FDB
:10FA8000D801C7010296A11DB11DC05EDE4F88835B
:10FA90009983AA83BB83C052D14022503040F1F6F3
:10FAA00036C0C05EDE4F288139814A815B81C052F9
:10FAB000D1400894C108D108760100E010E0089414
:10FAC000C11CD11C0894E11CF11C011D111DE20E8A
:10FAD000F31E041F151F21BDBB27A52F942F832FB5
:10FAE00082BD2F5F3F4F4F4F5F4FF89A80B5DB01CC
:10FAF0008D93BD012E153F054007510761F7C05E8C
:10FB0000DE4F288339834A835B83C052D1409601FC
:10FB10002D5F3F4FFB01108204C080EC8A8322E0FE
:10FB200030E08BE18093C6008091C00086FFFCCF5F
:10FB30008091C00080648093C000C15DDE4FF88179
:10FB4000CF52D140F093C6008091C00086FFFCCF19
:10FB50008091C00080648093C000432F3093C60022
:10FB60008091C00086FFFCCF8091C00080648093AC
:10FB7000C000922F2093C6008091C00086FFFCCF6A
:10FB80008091C00080648093C0008EE08093C600A6
:10FB90008091C00086FFFCCF8091C000806480937C
:10FBA000C00065E1C15DDE4FE880CF52D1406E25D7
:10FBB00069276427FE01319610C090819093C6009A
:10FBC0008091C00086FFFCCF31968091C000806498
:10FBD0008093C0006927215030402115310569F715
:10FBE0006093C6008091C00086FFFCCF8091C0006A
:10FBF00080648093C00085B1805885B9772081F4F6
:10FC0000C15DDE4F0881CF52D1400F5FC15DDE4F35
:10FC10000883CF52D14090E0A0E0B0E00D941AF4F8
:10FC200027982F9880E090E020ED37E0F901319798
:10FC3000F1F7019684369105C9F700008091C00064
:10FC40008D7F8093C00081E180935700E895EE2777
:10FC5000FF270994FFCF90E00D941AF497FB092E2B
:10FC600007260AD077FD04D02ED006D000201AF443
:10FC7000709561957F4F0895F6F7909581959F4F08
:10FC80000895A1E21A2EAA1BBB1BFD010DC0AA1FDD
:10FC9000BB1FEE1FFF1FA217B307E407F50720F0F5
:10FCA000A21BB30BE40BF50B661F771F881F991F70
:10FCB0001A9469F760957095809590959B01AC01B9
:10FCC000BD01CF010895AA1BBB1B51E107C0AA1FAC
:10FCD000BB1FA617B70710F0A61BB70B881F991FED
:10FCE0005A95A9F780959095BC01CD010895F99991
:10FCF000FECF92BD81BDF89A992780B50895262F31
:10FD0000F999FECF1FBA92BD81BD20BD0FB6F89400
:0EFD1000FA9AF99A0FBE01960895F894FFCF63
:00000001FF
