:020000040000FA
:100000000C9463000C948B000C948B000C948B006C
:100010000C948B000C948B000C948B000C948B0034
:100020000C948B000C948B000C948B000C948B0024
:100030000C948B000C948B000C948B000C948B0014
:100040000C94B4020C948B000C9482020C945C020D
:100050000C948B000C948B000C948B000C948B00F4
:100060000C948B000C948B0000000008000201002F
:100070000003040700000000000000000000000072
:1000800023002600290000000000250028002B0086
:1000900000000000240027002A00040404040404D3
:1000A0000404020202020202030303030303010227
:1000B00004081020408001020408102001020408F6
:1000C000102043038F0511241FBECFEFD8E0DEBF01
:1000D000CDBF11E0A0E0B1E0ECE5F2E102C0059097
:1000E0000D92A832B107D9F721E0A8E2B1E001C032
:1000F0001D92A83DB207E1F710E0C2E6D0E004C0CF
:100100002197FE010E94F607C136D107C9F70E9468
:1001100002040C9421090C940000AF92BF92CF927C
:10012000DF92EF92FF920F931F93CF93DF936C01B7
:100130007B018B01040F151FEB015E01AE18BF0898
:10014000C017D10759F06991D601ED91FC9101904A
:10015000F081E02DC6010995892B79F7C501DF9162
:10016000CF911F910F91FF90EF90DF90CF90BF90B4
:10017000AF900895FC01538D448D252F30E0842FDE
:1001800090E0821B930B541710F0CF9608950197BF
:100190000895FC01918D828D981761F0A28DAE0FAC
:1001A000BF2FB11D5D968C91928D9F5F9F73928F33
:1001B00090E008958FEF9FEF0895FC01918D828D5F
:1001C000981731F0828DE80FF11D858D90E008952C
:1001D0008FEF9FEF0895FC01918D228D892F90E084
:1001E000805C9F4F821B91098F739927089581E34B
:1001F00091E00E94EB0021E0892B09F420E0822F9E
:10020000089580E090E0892B29F00E94F700811189
:100210000C9400000895FC01A48DA80FB92FB11D06
:10022000A35ABF4F2C91848D90E001968F7399272C
:10023000848FA689B7892C93A089B1898C9183700A
:1002400080648C93938D848D981306C00288F38903
:10025000E02D80818F7D80830895EF92FF920F9330
:100260001F93CF93DF93EC0181E0888F9B8D8C8D62
:1002700098131AC0E889F989808185FF15C09FB756
:10028000F894EE89FF896083E889F9898081837019
:10029000806480839FBF81E090E0DF91CF911F91C8
:1002A0000F91FF90EF900895F62E0B8D10E00F5FE9
:1002B0001F4F0F731127E02E8C8D8E110CC00FB6BF
:1002C00007FCFACFE889F989808185FFF5CFCE0157
:1002D0000E940B01F1CFEB8DEC0FFD2FF11DE35AC6
:1002E000FF4FF0829FB7F8940B8FEA89FB898081DA
:1002F0008062CFCFCF93DF93EC01888D8823B9F054
:10030000AA89BB89E889F9898C9185FD03C0808120
:1003100086FD0DC00FB607FCF7CF8C9185FFF2CF9D
:10032000808185FFEDCFCE010E940B01E9CFDF91E7
:10033000CF91089590E0FC01E859FF4F2491FC0112
:10034000E255FF4F3491FC01E656FF4FE491EE2356
:10035000C9F0222339F0233001F1A8F4213019F13A
:10036000223029F1F0E0EE0FFF1FEA57FF4FA59171
:10037000B4918FB7F894EC91611126C030953E236B
:100380003C938FBF08952730A9F02830C9F024305E
:1003900049F7809180008F7D03C0809180008F7726
:1003A00080938000DFCF84B58F7784BDDBCF84B5A9
:1003B0008F7DFBCF8091B0008F778093B000D2CF3C
:1003C0008091B0008F7DF9CF3E2BDACF3FB7F89404
:1003D00080912D0190912E01A0912F01B0913001BB
:1003E00026B5A89B05C02F3F19F00196A11DB11D90
:1003F0003FBFBA2FA92F982F8827BC01CD01620FCC
:10040000711D811D911D42E0660F771F881F991F86
:100410004A95D1F70895FC0101900020E9F7319742
:10042000AF01481B590BBC0181E391E00C948D0096
:100430008F929F92AF92BF920F931F93CF93DF93B0
:10044000CDB7DEB7A1970FB6F894DEBF0FBECDBF14
:1004500019A2423008F44AE08E010F5D1F4F842E2E
:10046000912CB12CA12CA50194010E94D407E62F58
:10047000B901CA01EA30F4F4E05DD801EE938D01D0
:10048000232B242B252B79F790E080E0109719F08F
:10049000CD010E940B02A1960FB6F894DEBF0FBEED
:1004A000CDBFDF91CF911F910F91BF90AF909F90E3
:1004B0008F900895E95CE1CF1F920F920FB60F92D3
:1004C00011242F933F934F935F936F937F938F9359
:1004D0009F93AF93BF93EF93FF9381E391E00E94CB
:1004E0000B01FF91EF91BF91AF919F918F917F9100
:1004F0006F915F914F913F912F910F900FBE0F9091
:100500001F9018951F920F920FB60F9211242F93E0
:100510008F939F93EF93FF93E0914101F0914201FC
:100520008081E0914701F091480182FD1BC09081DC
:1005300080914A018F5F8F7320914B01821741F0A8
:10054000E0914A01F0E0EF5CFE4F958F80934A0105
:10055000FF91EF919F918F912F910F900FBE0F9070
:100560001F9018958081F4CF1F920F920FB60F92B3
:1005700011242F933F938F939F93AF93BF938091B9
:10058000290190912A01A0912B01B0912C01309169
:10059000280123E0230F2D3758F50196A11DB11D29
:1005A000209328018093290190932A01A0932B0185
:1005B000B0932C0180912D0190912E01A0912F01DB
:1005C000B09130010196A11DB11D80932D01909332
:1005D0002E01A0932F01B0933001BF91AF919F9155
:1005E0008F913F912F910F900FBE0F901F901895F4
:1005F00026E8230F0296A11DB11DD2CFCF92DF9224
:10060000EF92FF920F931F93E82FF92F05C001502F
:1006100011092109310961F1908196239417B9F3E9
:1006200005C0015011092109310911F1908196236A
:100630009413F7CFC12CD12CE12CF12C0AC08FEFF1
:10064000C81AD80AE80AF80A0C151D052E053F0538
:1006500079F080818623841791F36C2D7D2D8E2D6A
:100660009F2D1F910F91FF90EF90DF90CF900895F5
:1006700060E070E080E090E01F910F91FF90EF90BC
:10068000DF90CF900895CF93DF93109234011092B2
:10069000330188EE93E0A0E0B0E0809335019093C1
:1006A0003601A0933701B09338018AE091E090932E
:1006B00032018093310185EC90E090933E0180936C
:1006C0003D0184EC90E09093400180933F0180ECE9
:1006D00090E0909342018093410181EC90E09093EF
:1006E00044018093430182EC90E090934601809313
:1006F000450186EC90E09093480180934701109269
:100700004A0110924B0110924C0110924D018CE065
:1007100090E00E94FC07FC0185E090E091838083DB
:1007200086E090E09383828327E030E03583248362
:1007300028E030E03783268329E030E031872087C6
:100740002AE030E03387228722E030E03093CF0187
:100750002093CE01F093D101E093D0019093D30187
:100760008093D201E0EBF0E02491ECE9F0E0849199
:10077000882399F090E0880F991FFC01E057FF4F04
:10078000A591B491FC01EA57FF4F859194918FB7E1
:10079000F894EC91E22BEC938FBF30E020E0E091F5
:1007A000D001F091D101E20FF31F8081918199274F
:1007B000FC01E255FF4F449186569F4FFC01849106
:1007C0008823C1F090E0880F991FFC01E057FF4F8C
:1007D000C591D491FC01EA57FF4FA591B4919FB701
:1007E000F8948881E42FE0958E2388838C91E82308
:1007F000EC939FBF2E5F3F4F2C30310581F6DF9188
:10080000CF910895789484B5826084BD84B5816069
:1008100084BD85B5826085BD85B5816085BD8091CB
:100820006E00816080936E00109281008091810043
:10083000826080938100809181008160809381003B
:10084000809180008160809380008091B1008460FD
:100850008093B1008091B00081608093B00080915E
:100860007A00846080937A0080917A00826080931D
:100870007A0080917A00816080937A0080917A007A
:10088000806880937A001092C100E0914101F0915C
:10089000420182E08083E0913D01F0913E011082AF
:1008A000E0913F01F09140018FEC8083109249016B
:1008B000E0914501F091460186E08083E09143019B
:1008C000F0914401808180618083E0914301F09147
:1008D0004401808188608083E0914301F09144016C
:1008E000808180688083E0914301F09144018081A0
:1008F0008F7D808323E0222E312C33E2A32EB12C76
:1009000040E0842E40E0942ED0E0C0E060E0809192
:10091000CE010E949A01C1010197F1F761E0809137
:10092000CE010E949A01C5010197F1F760E0809124
:10093000CE010E949A01F894E091D001F091D1018A
:10094000EC0FFD1F808191819927FC01E255FF4F3B
:100950006491FC01E656FF4FE491F0E0EE0FFF1FBB
:10096000E458FF4F8591949109EE1BE520E030E0BB
:10097000462F0E94FE02611571058105910529F03F
:100980006F5F7F4F8F4F9F4F9F7078940E94AB0691
:1009900024E43BE44BE652E40E940A066B017C012E
:1009A000AC019B010E94CF078823E9F188E191E027
:1009B0000E940B0284E291E00E940B022296CC304E
:1009C000D10509F0A3CF0E94E6012B013C018CE385
:1009D000C82ED12CE12CF12C0E94E6016419750976
:1009E00086099709683E734081059105A8F321E0C7
:1009F000C21AD108E108F10888EE480E83E0581EBB
:100A0000611C711CC114D104E104F10429F78114A3
:100A1000910409F479CF0E94F700882309F474CF78
:100A20000E94000071CF2FEF3FEF4FE75FE7C70154
:100A3000B6010E94CF0781110DC02FEF3FEF4FE7A6
:100A40005FE7C701B6010E94050618161CF48CE189
:100A500091E0AECF2FEF3FEF4FE75FE4C701B60164
:100A60000E945D0718161CF480E291E0A1CF2FEFE1
:100A70003FEF4FE75FECC701B6010E94050687FD17
:100A8000F3CF2AE037ED43EA5BE3C701B6010E94EA
:100A900099052B013C010E947C066B017C010E94A0
:100AA000AB069B01AC01C301B2010E9498052B016A
:100AB0003C014AE0C701B6010E9418026EE281E3E0
:100AC00091E00E942D0120E030E040E251E4C301BA
:100AD000B2010E9462072B013C010E947C066B015F
:100AE000F12CE12C4AE0C701B6010E941802C701AF
:100AF000B6010E94AB069B01AC01C301B2010E948A
:100B0000980520E030E040E251E40E9462070E9434
:100B10007C0690E080E04AE00E9418024BCF809172
:100B2000D0019091D101009711F00C94980808958C
:100B30005058BB27AA270E94B0050C9423070E9497
:100B4000150738F00E941C0720F039F49F3F19F474
:100B500026F40C9412070EF4E095E7FB0C940C07B6
:100B6000E92F0E94340758F3BA1762077307840706
:100B7000950720F079F4A6F50C9456070EF4E0954D
:100B80000B2EBA2FA02D0B01B90190010C01CA0147
:100B9000A0011124FF27591B99F0593F50F4503EF2
:100BA00068F11A16F040A22F232F342F4427585FE4
:100BB000F3CF469537952795A795F0405395C9F7FC
:100BC0007EF41F16BA0B620B730B840BBAF09150B4
:100BD000A1F0FF0FBB1F661F771F881FC2F70EC053
:100BE000BA0F621F731F841F48F487957795679526
:100BF000B795F7959E3F08F0B0CF9395880F08F012
:100C00009927EE0F9795879508950E94E80608F4B6
:100C100081E008950E941E060C9423070E941C0781
:100C200058F00E94150740F029F45F3F29F00C941A
:100C30000C0751110C9457070C9412070E943407AB
:100C400068F39923B1F3552391F3951B550BBB27FB
:100C5000AA2762177307840738F09F5F5F4F220F40
:100C6000331F441FAA1FA9F335D00E2E3AF0E0E837
:100C700032D091505040E695001CCAF72BD0FE2F81
:100C800029D0660F771F881FBB1F26173707480715
:100C9000AB07B0E809F0BB0B802DBF01FF279358CD
:100CA0005F4F3AF09E3F510578F00C940C070C947E
:100CB00057075F3FE4F3983ED4F3869577956795A1
:100CC000B795F7959F5FC9F7880F911D9695879502
:100CD00097F90895E1E0660F771F881FBB1F621721
:100CE00073078407BA0720F0621B730B840BBA0BDF
:100CF000EE1F88F7E09508950E943C0788F09F5703
:100D000098F0B92F9927B751B0F0E1F0660F771F2F
:100D1000881F991F1AF0BA95C9F714C0B13091F025
:100D20000E945607B1E008950C945607672F782F5C
:100D30008827B85F39F0B93FCCF3869577956795EA
:100D4000B395D9F73EF490958095709561957F4F56
:100D50008F4F9F4F0895E89409C097FB3EF49095FC
:100D60008095709561957F4F8F4F9F4F9923A9F084
:100D7000F92F96E9BB279395F69587957795679513
:100D8000B795F111F8CFFAF4BB0F11F460FF1BC057
:100D90006F5F7F4F8F4F9F4F16C0882311F096E9EA
:100DA00011C0772321F09EE8872F762F05C0662398
:100DB00071F096E8862F70E060E02AF09A95660F51
:100DC000771F881FDAF7880F9695879597F908950A
:100DD000990F0008550FAA0BE0E8FEEF161617064C
:100DE000E807F907C0F012161306E407F50798F0B4
:100DF000621B730B840B950B39F40A2661F0232BCD
:100E0000242B252B21F408950A2609F4A140A69548
:100E10008FEF811D811D089597F99F6780E870E02D
:100E200060E008959FEF80EC089500240A94161660
:100E3000170618060906089500240A9412161306C8
:100E4000140605060895092E0394000C11F4882356
:100E500052F0BB0F40F4BF2B11F460FF04C06F5F72
:100E60007F4F8F4F9F4F089557FD9058440F551F48
:100E700059F05F3F71F04795880F97FB991F61F01C
:100E80009F3F79F087950895121613061406551F93
:100E9000F2CF4695F1DF08C0161617061806991FFF
:100EA000F1CF86957105610508940895E894BB27F4
:100EB00066277727CB0197F908950E94E80608F482
:100EC0008FEF08950E9475070C9423070E94150761
:100ED00038F00E941C0720F0952311F00C940C07A9
:100EE0000C94120711240C9457070E94340770F3D6
:100EF000959FC1F3950F50E0551F629FF001729FBF
:100F0000BB27F00DB11D639FAA27F00DB11DAA1FCD
:100F1000649F6627B00DA11D661F829F2227B00D1A
:100F2000A11D621F739FB00DA11D621F839FA00DA5
:100F3000611D221F749F3327A00D611D231F849FF5
:100F4000600D211D822F762F6A2F11249F5750404C
:100F50009AF0F1F088234AF0EE0FFF1FBB1F661FC7
:100F6000771F881F91505040A9F79E3F510580F090
:100F70000C940C070C9457075F3FE4F3983ED4F3AE
:100F8000869577956795B795F795E7959F5FC1F734
:100F9000FE2B880F911D9695879597F908950E94CD
:100FA000E806880B990B0895A1E21A2EAA1BBB1B19
:100FB000FD010DC0AA1FBB1FEE1FFF1FA217B30725
:100FC000E407F50720F0A21BB30BE40BF50B661F3B
:100FD000771F881F991F1A9469F7609570958095FF
:100FE00090959B01AC01BD01CF010895EE0FFF1F4D
:100FF0000590F491E02D09940F931F93CF93DF9305
:101000008230910510F482E090E0E091D601F091F9
:10101000D70130E020E0B0E0A0E0309799F421154E
:10102000310509F44AC0281B390B24303105D8F5A5
:101030008A819B816115710589F1FB01938382830C
:10104000FE0111C040815181028113814817590767
:10105000E0F04817590799F4109761F012960C9335
:10106000129713961C933296CF01DF91CF911F9167
:101070000F9108950093D6011093D701F4CF211555
:10108000310551F04217530738F0A901DB019A01ED
:10109000BD01DF01F801C1CFEF01F9CF9093D70176
:1010A0008093D601CDCFFE01E20FF31F8193919380
:1010B0002250310939832883D7CF2091D401309130
:1010C000D501232B41F4209102013091030130938B
:1010D000D5012093D4012091000130910101211507
:1010E000310541F42DB73EB74091040150910501FF
:1010F000241B350BE091D401F091D501E217F307E1
:10110000A0F42E1B3F0B2817390778F0AC014E5F77
:101110005F4F2417350748F04E0F5F1F5093D501DE
:101120004093D401819391939FCFF0E0E0E09CCF76
:10113000CF93DF930097E9F0FC013297138212827C
:10114000A091D601B091D701ED0130E020E01097D9
:10115000A1F420813181820F931F2091D40130911D
:10116000D5012817390709F061C0F093D501E09344
:10117000D401DF91CF910895EA01CE17DF07E8F59A
:101180004A815B819E0141155105B1F7E901FB835D
:10119000EA8349915991C40FD51FEC17FD0761F4FB
:1011A000808191810296840F951FE901998388833C
:1011B000828193819B838A83F0E0E0E012968D9197
:1011C0009C9113970097B9F52D913C911197CD0102
:1011D0000296820F931F2091D4013091D5012817D8
:1011E000390739F6309751F51092D7011092D60190
:1011F000B093D501A093D401BCCFD383C2834081E7
:101200005181840F951FC817D90761F44E5F5F4F56
:1012100088819981480F591F518340838A819B811E
:10122000938382832115310509F0B0CFF093D70164
:10123000E093D6019ECFFD01DC01C0CF1382128264
:10124000D7CF10E0C2E6D0E004C0FE010E94F6074E
:101250002196C336D107C9F7F894FFCF0000D80113
:101260008000000000002D018D00BA007A01EB0023
:10127000C900DD006E616E00696E66006F76660003
:041280000D0A000053
:107E0000112484B714BE81FFF0D085E080938100F7
:107E100082E08093C00088E18093C10086E0809377
:107E2000C20080E18093C4008EE0C9D0259A86E02C
:107E300020E33CEF91E0309385002093840096BBD3
:107E4000B09BFECF1D9AA8958150A9F7CC24DD24C4
:107E500088248394B5E0AB2EA1E19A2EF3E0BF2EE7
:107E6000A2D0813461F49FD0082FAFD0023811F036
:107E7000013811F484E001C083E08DD089C08234E0
:107E800011F484E103C0853419F485E0A6D080C0E4
:107E9000853579F488D0E82EFF2485D0082F10E0AE
:107EA000102F00270E291F29000F111F8ED06801E7
:107EB0006FC0863521F484E090D080E0DECF843638
:107EC00009F040C070D06FD0082F6DD080E0C81688
:107ED00080E7D80618F4F601B7BEE895C0E0D1E017
:107EE00062D089930C17E1F7F0E0CF16F0E7DF06D8
:107EF00018F0F601B7BEE89568D007B600FCFDCFD4
:107F0000A601A0E0B1E02C9130E011968C91119780
:107F100090E0982F8827822B932B1296FA010C0160
:107F200087BEE89511244E5F5F4FF1E0A038BF0790
:107F300051F7F601A7BEE89507B600FCFDCF97BE46
:107F4000E89526C08437B1F42ED02DD0F82E2BD052
:107F50003CD0F601EF2C8F010F5F1F4F84911BD097
:107F6000EA94F801C1F70894C11CD11CFA94CF0C13
:107F7000D11C0EC0853739F428D08EE10CD085E9AC
:107F80000AD08FE07ACF813511F488E018D01DD067
:107F900080E101D065CF982F8091C00085FFFCCF94
:107FA0009093C60008958091C00087FFFCCF809118
:107FB000C00084FD01C0A8958091C6000895E0E648
:107FC000F0E098E1908380830895EDDF803219F02E
:107FD00088E0F5DFFFCF84E1DECF1F93182FE3DFCA
:107FE0001150E9F7F2DF1F91089580E0E8DFEE27F6
:047FF000FF270994CA
:027FFE00040479
:00000001FF
